{
  "_format": "hh-sol-artifact-1",
  "contractName": "Poll",
  "sourceName": "contracts/Poll.sol",
  "abi": [
    {
      "inputs": [
        {
          "internalType": "address",
          "name": "membershipNFTAddress",
          "type": "address"
        },
        {
          "internalType": "string",
          "name": "_question",
          "type": "string"
        },
        {
          "internalType": "string[]",
          "name": "_options",
          "type": "string[]"
        }
      ],
      "stateMutability": "nonpayable",
      "type": "constructor"
    },
    {
      "inputs": [],
      "name": "getOptions",
      "outputs": [
        {
          "internalType": "string[]",
          "name": "",
          "type": "string[]"
        }
      ],
      "stateMutability": "view",
      "type": "function"
    },
    {
      "inputs": [
        {
          "internalType": "address",
          "name": "",
          "type": "address"
        }
      ],
      "name": "hasVoted",
      "outputs": [
        {
          "internalType": "bool",
          "name": "",
          "type": "bool"
        }
      ],
      "stateMutability": "view",
      "type": "function"
    },
    {
      "inputs": [],
      "name": "membershipNFT",
      "outputs": [
        {
          "internalType": "contract IMembershipNFT",
          "name": "",
          "type": "address"
        }
      ],
      "stateMutability": "view",
      "type": "function"
    },
    {
      "inputs": [
        {
          "internalType": "uint256",
          "name": "",
          "type": "uint256"
        }
      ],
      "name": "options",
      "outputs": [
        {
          "internalType": "string",
          "name": "",
          "type": "string"
        }
      ],
      "stateMutability": "view",
      "type": "function"
    },
    {
      "inputs": [],
      "name": "question",
      "outputs": [
        {
          "internalType": "string",
          "name": "",
          "type": "string"
        }
      ],
      "stateMutability": "view",
      "type": "function"
    },
    {
      "inputs": [
        {
          "internalType": "uint256",
          "name": "optionIndex",
          "type": "uint256"
        }
      ],
      "name": "vote",
      "outputs": [],
      "stateMutability": "nonpayable",
      "type": "function"
    },
    {
      "inputs": [
        {
          "internalType": "uint256",
          "name": "",
          "type": "uint256"
        }
      ],
      "name": "votes",
      "outputs": [
        {
          "internalType": "uint256",
          "name": "",
          "type": "uint256"
        }
      ],
      "stateMutability": "view",
      "type": "function"
    }
  ],
  "bytecode": "0x608060405234801561000f575f5ffd5b50604051611386380380611386833981810160405281019061003191906103fa565b825f5f6101000a81548173ffffffffffffffffffffffffffffffffffffffff021916908373ffffffffffffffffffffffffffffffffffffffff160217905550816001908161007f9190610692565b50806002908051906020019061009692919061009f565b50505050610761565b828054828255905f5260205f209081019282156100e5579160200282015b828111156100e45782518290816100d49190610692565b50916020019190600101906100bd565b5b5090506100f291906100f6565b5090565b5b80821115610115575f818161010c9190610119565b506001016100f7565b5090565b508054610125906104b9565b5f825580601f106101365750610153565b601f0160209004905f5260205f20908101906101529190610156565b5b50565b5b8082111561016d575f815f905550600101610157565b5090565b5f604051905090565b5f5ffd5b5f5ffd5b5f73ffffffffffffffffffffffffffffffffffffffff82169050919050565b5f6101ab82610182565b9050919050565b6101bb816101a1565b81146101c5575f5ffd5b50565b5f815190506101d6816101b2565b92915050565b5f5ffd5b5f5ffd5b5f601f19601f8301169050919050565b7f4e487b71000000000000000000000000000000000000000000000000000000005f52604160045260245ffd5b61022a826101e4565b810181811067ffffffffffffffff82111715610249576102486101f4565b5b80604052505050565b5f61025b610171565b90506102678282610221565b919050565b5f67ffffffffffffffff821115610286576102856101f4565b5b61028f826101e4565b9050602081019050919050565b8281835e5f83830152505050565b5f6102bc6102b78461026c565b610252565b9050828152602081018484840111156102d8576102d76101e0565b5b6102e384828561029c565b509392505050565b5f82601f8301126102ff576102fe6101dc565b5b815161030f8482602086016102aa565b91505092915050565b5f67ffffffffffffffff821115610332576103316101f4565b5b602082029050602081019050919050565b5f5ffd5b5f61035961035484610318565b610252565b9050808382526020820190506020840283018581111561037c5761037b610343565b5b835b818110156103c357805167ffffffffffffffff8111156103a1576103a06101dc565b5b8086016103ae89826102eb565b8552602085019450505060208101905061037e565b5050509392505050565b5f82601f8301126103e1576103e06101dc565b5b81516103f1848260208601610347565b91505092915050565b5f5f5f606084860312156104115761041061017a565b5b5f61041e868287016101c8565b935050602084015167ffffffffffffffff81111561043f5761043e61017e565b5b61044b868287016102eb565b925050604084015167ffffffffffffffff81111561046c5761046b61017e565b5b610478868287016103cd565b9150509250925092565b5f81519050919050565b7f4e487b71000000000000000000000000000000000000000000000000000000005f52602260045260245ffd5b5f60028204905060018216806104d057607f821691505b6020821081036104e3576104e261048c565b5b50919050565b5f819050815f5260205f209050919050565b5f6020601f8301049050919050565b5f82821b905092915050565b5f600883026105457fffffffffffffffffffffffffffffffffffffffffffffffffffffffffffffffff8261050a565b61054f868361050a565b95508019841693508086168417925050509392505050565b5f819050919050565b5f819050919050565b5f61059361058e61058984610567565b610570565b610567565b9050919050565b5f819050919050565b6105ac83610579565b6105c06105b88261059a565b848454610516565b825550505050565b5f5f905090565b6105d76105c8565b6105e28184846105a3565b505050565b5b81811015610605576105fa5f826105cf565b6001810190506105e8565b5050565b601f82111561064a5761061b816104e9565b610624846104fb565b81016020851015610633578190505b61064761063f856104fb565b8301826105e7565b50505b505050565b5f82821c905092915050565b5f61066a5f198460080261064f565b1980831691505092915050565b5f610682838361065b565b9150826002028217905092915050565b61069b82610482565b67ffffffffffffffff8111156106b4576106b36101f4565b5b6106be82546104b9565b6106c9828285610609565b5f60209050601f8311600181146106fa575f84156106e8578287015190505b6106f28582610677565b865550610759565b601f198416610708866104e9565b5f5b8281101561072f5784890151825560018201915060208501945060208101905061070a565b8683101561074c5784890151610748601f89168261065b565b8355505b6001600288020188555050505b505050505050565b610c188061076e5f395ff3fe608060405234801561000f575f5ffd5b506004361061007b575f3560e01c8063409e220511610059578063409e2205146100e95780635df8133014610119578063985d0b1e14610149578063cc2ee196146101675761007b565b80630121b93f1461007f57806309eef43e1461009b5780633fad9ae0146100cb575b5f5ffd5b61009960048036038101906100949190610640565b610185565b005b6100b560048036038101906100b091906106c5565b6103ad565b6040516100c2919061070a565b60405180910390f35b6100d36103ca565b6040516100e09190610793565b60405180910390f35b61010360048036038101906100fe9190610640565b610456565b6040516101109190610793565b60405180910390f35b610133600480360381019061012e9190610640565b6104fc565b60405161014091906107c2565b60405180910390f35b610151610511565b60405161015e9190610836565b60405180910390f35b61016f610535565b60405161017c9190610952565b60405180910390f35b5f5f5f9054906101000a900473ffffffffffffffffffffffffffffffffffffffff1673ffffffffffffffffffffffffffffffffffffffff166370a08231336040518263ffffffff1660e01b81526004016101df9190610981565b602060405180830381865afa1580156101fa573d5f5f3e3d5ffd5b505050506040513d601f19601f8201168201806040525081019061021e91906109ae565b1161025e576040517f08c379a000000000000000000000000000000000000000000000000000000000815260040161025590610a23565b60405180910390fd5b60035f3373ffffffffffffffffffffffffffffffffffffffff1673ffffffffffffffffffffffffffffffffffffffff1681526020019081526020015f205f9054906101000a900460ff16156102e8576040517f08c379a00000000000000000000000000000000000000000000000000000000081526004016102df90610a8b565b60405180910390fd5b600280549050811061032f576040517f08c379a000000000000000000000000000000000000000000000000000000000815260040161032690610af3565b60405180910390fd5b600160035f3373ffffffffffffffffffffffffffffffffffffffff1673ffffffffffffffffffffffffffffffffffffffff1681526020019081526020015f205f6101000a81548160ff02191690831515021790555060045f8281526020019081526020015f205f8154809291906103a590610b3e565b919050555050565b6003602052805f5260405f205f915054906101000a900460ff1681565b600180546103d790610bb2565b80601f016020809104026020016040519081016040528092919081815260200182805461040390610bb2565b801561044e5780601f106104255761010080835404028352916020019161044e565b820191905f5260205f20905b81548152906001019060200180831161043157829003601f168201915b505050505081565b60028181548110610465575f80fd5b905f5260205f20015f91509050805461047d90610bb2565b80601f01602080910402602001604051908101604052809291908181526020018280546104a990610bb2565b80156104f45780601f106104cb576101008083540402835291602001916104f4565b820191905f5260205f20905b8154815290600101906020018083116104d757829003601f168201915b505050505081565b6004602052805f5260405f205f915090505481565b5f5f9054906101000a900473ffffffffffffffffffffffffffffffffffffffff1681565b60606002805480602002602001604051908101604052809291908181526020015f905b82821015610600578382905f5260205f2001805461057590610bb2565b80601f01602080910402602001604051908101604052809291908181526020018280546105a190610bb2565b80156105ec5780601f106105c3576101008083540402835291602001916105ec565b820191905f5260205f20905b8154815290600101906020018083116105cf57829003601f168201915b505050505081526020019060010190610558565b50505050905090565b5f5ffd5b5f819050919050565b61061f8161060d565b8114610629575f5ffd5b50565b5f8135905061063a81610616565b92915050565b5f6020828403121561065557610654610609565b5b5f6106628482850161062c565b91505092915050565b5f73ffffffffffffffffffffffffffffffffffffffff82169050919050565b5f6106948261066b565b9050919050565b6106a48161068a565b81146106ae575f5ffd5b50565b5f813590506106bf8161069b565b92915050565b5f602082840312156106da576106d9610609565b5b5f6106e7848285016106b1565b91505092915050565b5f8115159050919050565b610704816106f0565b82525050565b5f60208201905061071d5f8301846106fb565b92915050565b5f81519050919050565b5f82825260208201905092915050565b8281835e5f83830152505050565b5f601f19601f8301169050919050565b5f61076582610723565b61076f818561072d565b935061077f81856020860161073d565b6107888161074b565b840191505092915050565b5f6020820190508181035f8301526107ab818461075b565b905092915050565b6107bc8161060d565b82525050565b5f6020820190506107d55f8301846107b3565b92915050565b5f819050919050565b5f6107fe6107f96107f48461066b565b6107db565b61066b565b9050919050565b5f61080f826107e4565b9050919050565b5f61082082610805565b9050919050565b61083081610816565b82525050565b5f6020820190506108495f830184610827565b92915050565b5f81519050919050565b5f82825260208201905092915050565b5f819050602082019050919050565b5f82825260208201905092915050565b5f61089282610723565b61089c8185610878565b93506108ac81856020860161073d565b6108b58161074b565b840191505092915050565b5f6108cb8383610888565b905092915050565b5f602082019050919050565b5f6108e98261084f565b6108f38185610859565b93508360208202850161090585610869565b805f5b85811015610940578484038952815161092185826108c0565b945061092c836108d3565b925060208a01995050600181019050610908565b50829750879550505050505092915050565b5f6020820190508181035f83015261096a81846108df565b905092915050565b61097b8161068a565b82525050565b5f6020820190506109945f830184610972565b92915050565b5f815190506109a881610616565b92915050565b5f602082840312156109c3576109c2610609565b5b5f6109d08482850161099a565b91505092915050565b7f4e6f742061206d656d62657200000000000000000000000000000000000000005f82015250565b5f610a0d600c8361072d565b9150610a18826109d9565b602082019050919050565b5f6020820190508181035f830152610a3a81610a01565b9050919050565b7f416c726561647920766f746564000000000000000000000000000000000000005f82015250565b5f610a75600d8361072d565b9150610a8082610a41565b602082019050919050565b5f6020820190508181035f830152610aa281610a69565b9050919050565b7f496e76616c6964206f7074696f6e0000000000000000000000000000000000005f82015250565b5f610add600e8361072d565b9150610ae882610aa9565b602082019050919050565b5f6020820190508181035f830152610b0a81610ad1565b9050919050565b7f4e487b71000000000000000000000000000000000000000000000000000000005f52601160045260245ffd5b5f610b488261060d565b91507fffffffffffffffffffffffffffffffffffffffffffffffffffffffffffffffff8203610b7a57610b79610b11565b5b600182019050919050565b7f4e487b71000000000000000000000000000000000000000000000000000000005f52602260045260245ffd5b5f6002820490506001821680610bc957607f821691505b602082108103610bdc57610bdb610b85565b5b5091905056fea2646970667358221220cf6547ca3be1bf1af021325aef39e58d5b4baf1a9d50c7424a995173715f216364736f6c634300081d0033",
  "linkReferences": {},
  "deployedLinkReferences": {}
}