{
  "_format": "hh-sol-artifact-1",
  "contractName": "MembershipNFT",
  "sourceName": "contracts/MembershipNFT.sol",
  "abi": [
    {
      "inputs": [
        {
          "internalType": "address",
          "name": "initialOwner",
          "type": "address"
        }
      ],
      "stateMutability": "nonpayable",
      "type": "constructor"
    },
    {
      "inputs": [
        {
          "internalType": "address",
          "name": "sender",
          "type": "address"
        },
        {
          "internalType": "uint256",
          "name": "tokenId",
          "type": "uint256"
        },
        {
          "internalType": "address",
          "name": "owner",
          "type": "address"
        }
      ],
      "name": "ERC721IncorrectOwner",
      "type": "error"
    },
    {
      "inputs": [
        {
          "internalType": "address",
          "name": "operator",
          "type": "address"
        },
        {
          "internalType": "uint256",
          "name": "tokenId",
          "type": "uint256"
        }
      ],
      "name": "ERC721InsufficientApproval",
      "type": "error"
    },
    {
      "inputs": [
        {
          "internalType": "address",
          "name": "approver",
          "type": "address"
        }
      ],
      "name": "ERC721InvalidApprover",
      "type": "error"
    },
    {
      "inputs": [
        {
          "internalType": "address",
          "name": "operator",
          "type": "address"
        }
      ],
      "name": "ERC721InvalidOperator",
      "type": "error"
    },
    {
      "inputs": [
        {
          "internalType": "address",
          "name": "owner",
          "type": "address"
        }
      ],
      "name": "ERC721InvalidOwner",
      "type": "error"
    },
    {
      "inputs": [
        {
          "internalType": "address",
          "name": "receiver",
          "type": "address"
        }
      ],
      "name": "ERC721InvalidReceiver",
      "type": "error"
    },
    {
      "inputs": [
        {
          "internalType": "address",
          "name": "sender",
          "type": "address"
        }
      ],
      "name": "ERC721InvalidSender",
      "type": "error"
    },
    {
      "inputs": [
        {
          "internalType": "uint256",
          "name": "tokenId",
          "type": "uint256"
        }
      ],
      "name": "ERC721NonexistentToken",
      "type": "error"
    },
    {
      "inputs": [
        {
          "internalType": "address",
          "name": "owner",
          "type": "address"
        }
      ],
      "name": "OwnableInvalidOwner",
      "type": "error"
    },
    {
      "inputs": [
        {
          "internalType": "address",
          "name": "account",
          "type": "address"
        }
      ],
      "name": "OwnableUnauthorizedAccount",
      "type": "error"
    },
    {
      "anonymous": false,
      "inputs": [
        {
          "indexed": true,
          "internalType": "address",
          "name": "owner",
          "type": "address"
        },
        {
          "indexed": true,
          "internalType": "address",
          "name": "approved",
          "type": "address"
        },
        {
          "indexed": true,
          "internalType": "uint256",
          "name": "tokenId",
          "type": "uint256"
        }
      ],
      "name": "Approval",
      "type": "event"
    },
    {
      "anonymous": false,
      "inputs": [
        {
          "indexed": true,
          "internalType": "address",
          "name": "owner",
          "type": "address"
        },
        {
          "indexed": true,
          "internalType": "address",
          "name": "operator",
          "type": "address"
        },
        {
          "indexed": false,
          "internalType": "bool",
          "name": "approved",
          "type": "bool"
        }
      ],
      "name": "ApprovalForAll",
      "type": "event"
    },
    {
      "anonymous": false,
      "inputs": [
        {
          "indexed": true,
          "internalType": "address",
          "name": "previousOwner",
          "type": "address"
        },
        {
          "indexed": true,
          "internalType": "address",
          "name": "newOwner",
          "type": "address"
        }
      ],
      "name": "OwnershipTransferred",
      "type": "event"
    },
    {
      "anonymous": false,
      "inputs": [
        {
          "indexed": true,
          "internalType": "address",
          "name": "from",
          "type": "address"
        },
        {
          "indexed": true,
          "internalType": "address",
          "name": "to",
          "type": "address"
        },
        {
          "indexed": true,
          "internalType": "uint256",
          "name": "tokenId",
          "type": "uint256"
        }
      ],
      "name": "Transfer",
      "type": "event"
    },
    {
      "inputs": [
        {
          "internalType": "address",
          "name": "to",
          "type": "address"
        },
        {
          "internalType": "uint256",
          "name": "tokenId",
          "type": "uint256"
        }
      ],
      "name": "approve",
      "outputs": [],
      "stateMutability": "nonpayable",
      "type": "function"
    },
    {
      "inputs": [
        {
          "internalType": "address",
          "name": "owner",
          "type": "address"
        }
      ],
      "name": "balanceOf",
      "outputs": [
        {
          "internalType": "uint256",
          "name": "",
          "type": "uint256"
        }
      ],
      "stateMutability": "view",
      "type": "function"
    },
    {
      "inputs": [
        {
          "internalType": "uint256",
          "name": "tokenId",
          "type": "uint256"
        }
      ],
      "name": "getApproved",
      "outputs": [
        {
          "internalType": "address",
          "name": "",
          "type": "address"
        }
      ],
      "stateMutability": "view",
      "type": "function"
    },
    {
      "inputs": [
        {
          "internalType": "address",
          "name": "owner",
          "type": "address"
        },
        {
          "internalType": "address",
          "name": "operator",
          "type": "address"
        }
      ],
      "name": "isApprovedForAll",
      "outputs": [
        {
          "internalType": "bool",
          "name": "",
          "type": "bool"
        }
      ],
      "stateMutability": "view",
      "type": "function"
    },
    {
      "inputs": [],
      "name": "mint",
      "outputs": [],
      "stateMutability": "nonpayable",
      "type": "function"
    },
    {
      "inputs": [],
      "name": "name",
      "outputs": [
        {
          "internalType": "string",
          "name": "",
          "type": "string"
        }
      ],
      "stateMutability": "view",
      "type": "function"
    },
    {
      "inputs": [],
      "name": "owner",
      "outputs": [
        {
          "internalType": "address",
          "name": "",
          "type": "address"
        }
      ],
      "stateMutability": "view",
      "type": "function"
    },
    {
      "inputs": [
        {
          "internalType": "uint256",
          "name": "tokenId",
          "type": "uint256"
        }
      ],
      "name": "ownerOf",
      "outputs": [
        {
          "internalType": "address",
          "name": "",
          "type": "address"
        }
      ],
      "stateMutability": "view",
      "type": "function"
    },
    {
      "inputs": [],
      "name": "renounceOwnership",
      "outputs": [],
      "stateMutability": "nonpayable",
      "type": "function"
    },
    {
      "inputs": [
        {
          "internalType": "address",
          "name": "to",
          "type": "address"
        }
      ],
      "name": "safeMint",
      "outputs": [],
      "stateMutability": "nonpayable",
      "type": "function"
    },
    {
      "inputs": [
        {
          "internalType": "address",
          "name": "from",
          "type": "address"
        },
        {
          "internalType": "address",
          "name": "to",
          "type": "address"
        },
        {
          "internalType": "uint256",
          "name": "tokenId",
          "type": "uint256"
        }
      ],
      "name": "safeTransferFrom",
      "outputs": [],
      "stateMutability": "nonpayable",
      "type": "function"
    },
    {
      "inputs": [
        {
          "internalType": "address",
          "name": "from",
          "type": "address"
        },
        {
          "internalType": "address",
          "name": "to",
          "type": "address"
        },
        {
          "internalType": "uint256",
          "name": "tokenId",
          "type": "uint256"
        },
        {
          "internalType": "bytes",
          "name": "data",
          "type": "bytes"
        }
      ],
      "name": "safeTransferFrom",
      "outputs": [],
      "stateMutability": "nonpayable",
      "type": "function"
    },
    {
      "inputs": [
        {
          "internalType": "address",
          "name": "operator",
          "type": "address"
        },
        {
          "internalType": "bool",
          "name": "approved",
          "type": "bool"
        }
      ],
      "name": "setApprovalForAll",
      "outputs": [],
      "stateMutability": "nonpayable",
      "type": "function"
    },
    {
      "inputs": [
        {
          "internalType": "bytes4",
          "name": "interfaceId",
          "type": "bytes4"
        }
      ],
      "name": "supportsInterface",
      "outputs": [
        {
          "internalType": "bool",
          "name": "",
          "type": "bool"
        }
      ],
      "stateMutability": "view",
      "type": "function"
    },
    {
      "inputs": [],
      "name": "symbol",
      "outputs": [
        {
          "internalType": "string",
          "name": "",
          "type": "string"
        }
      ],
      "stateMutability": "view",
      "type": "function"
    },
    {
      "inputs": [
        {
          "internalType": "uint256",
          "name": "tokenId",
          "type": "uint256"
        }
      ],
      "name": "tokenURI",
      "outputs": [
        {
          "internalType": "string",
          "name": "",
          "type": "string"
        }
      ],
      "stateMutability": "view",
      "type": "function"
    },
    {
      "inputs": [
        {
          "internalType": "address",
          "name": "from",
          "type": "address"
        },
        {
          "internalType": "address",
          "name": "to",
          "type": "address"
        },
        {
          "internalType": "uint256",
          "name": "tokenId",
          "type": "uint256"
        }
      ],
      "name": "transferFrom",
      "outputs": [],
      "stateMutability": "nonpayable",
      "type": "function"
    },
    {
      "inputs": [
        {
          "internalType": "address",
          "name": "newOwner",
          "type": "address"
        }
      ],
      "name": "transferOwnership",
      "outputs": [],
      "stateMutability": "nonpayable",
      "type": "function"
    }
  ],
  "bytecode": "0x608060405234801561000f575f5ffd5b506040516126bc3803806126bc83398181016040528101906100319190610266565b806040518060400160405280600d81526020017f4d656d626572736869704e4654000000000000000000000000000000000000008152506040518060400160405280600481526020017f4d4e465400000000000000000000000000000000000000000000000000000000815250815f90816100ac91906104ce565b5080600190816100bc91906104ce565b5050505f73ffffffffffffffffffffffffffffffffffffffff168173ffffffffffffffffffffffffffffffffffffffff160361012f575f6040517f1e4fbdf700000000000000000000000000000000000000000000000000000000815260040161012691906105ac565b60405180910390fd5b61013e8161014560201b60201c565b50506105c5565b5f60065f9054906101000a900473ffffffffffffffffffffffffffffffffffffffff1690508160065f6101000a81548173ffffffffffffffffffffffffffffffffffffffff021916908373ffffffffffffffffffffffffffffffffffffffff1602179055508173ffffffffffffffffffffffffffffffffffffffff168173ffffffffffffffffffffffffffffffffffffffff167f8be0079c531659141344cd1fd0a4f28419497f9722a3daafe3b4186f6b6457e060405160405180910390a35050565b5f5ffd5b5f73ffffffffffffffffffffffffffffffffffffffff82169050919050565b5f6102358261020c565b9050919050565b6102458161022b565b811461024f575f5ffd5b50565b5f815190506102608161023c565b92915050565b5f6020828403121561027b5761027a610208565b5b5f61028884828501610252565b91505092915050565b5f81519050919050565b7f4e487b71000000000000000000000000000000000000000000000000000000005f52604160045260245ffd5b7f4e487b71000000000000000000000000000000000000000000000000000000005f52602260045260245ffd5b5f600282049050600182168061030c57607f821691505b60208210810361031f5761031e6102c8565b5b50919050565b5f819050815f5260205f209050919050565b5f6020601f8301049050919050565b5f82821b905092915050565b5f600883026103817fffffffffffffffffffffffffffffffffffffffffffffffffffffffffffffffff82610346565b61038b8683610346565b95508019841693508086168417925050509392505050565b5f819050919050565b5f819050919050565b5f6103cf6103ca6103c5846103a3565b6103ac565b6103a3565b9050919050565b5f819050919050565b6103e8836103b5565b6103fc6103f4826103d6565b848454610352565b825550505050565b5f5f905090565b610413610404565b61041e8184846103df565b505050565b5b81811015610441576104365f8261040b565b600181019050610424565b5050565b601f8211156104865761045781610325565b61046084610337565b8101602085101561046f578190505b61048361047b85610337565b830182610423565b50505b505050565b5f82821c905092915050565b5f6104a65f198460080261048b565b1980831691505092915050565b5f6104be8383610497565b9150826002028217905092915050565b6104d782610291565b67ffffffffffffffff8111156104f0576104ef61029b565b5b6104fa82546102f5565b610505828285610445565b5f60209050601f831160018114610536575f8415610524578287015190505b61052e85826104b3565b865550610595565b601f19841661054486610325565b5f5b8281101561056b57848901518255600182019150602085019450602081019050610546565b868310156105885784890151610584601f891682610497565b8355505b6001600288020188555050505b505050505050565b6105a68161022b565b82525050565b5f6020820190506105bf5f83018461059d565b92915050565b6120ea806105d25f395ff3fe608060405234801561000f575f5ffd5b5060043610610114575f3560e01c806370a08231116100a0578063a22cb4651161006f578063a22cb465146102b6578063b88d4fde146102d2578063c87b56dd146102ee578063e985e9c51461031e578063f2fde38b1461034e57610114565b806370a0823114610240578063715018a6146102705780638da5cb5b1461027a57806395d89b411461029857610114565b80631249c58b116100e75780631249c58b146101b257806323b872dd146101bc57806340d097c3146101d857806342842e0e146101f45780636352211e1461021057610114565b806301ffc9a71461011857806306fdde0314610148578063081812fc14610166578063095ea7b314610196575b5f5ffd5b610132600480360381019061012d9190611921565b61036a565b60405161013f9190611966565b60405180910390f35b61015061044b565b60405161015d91906119ef565b60405180910390f35b610180600480360381019061017b9190611a42565b6104da565b60405161018d9190611aac565b60405180910390f35b6101b060048036038101906101ab9190611aef565b6104f5565b005b6101ba61050b565b005b6101d660048036038101906101d19190611b2d565b610530565b005b6101f260048036038101906101ed9190611b7d565b61062f565b005b61020e60048036038101906102099190611b2d565b61065d565b005b61022a60048036038101906102259190611a42565b61067c565b6040516102379190611aac565b60405180910390f35b61025a60048036038101906102559190611b7d565b61068d565b6040516102679190611bb7565b60405180910390f35b610278610743565b005b610282610756565b60405161028f9190611aac565b60405180910390f35b6102a061077e565b6040516102ad91906119ef565b60405180910390f35b6102d060048036038101906102cb9190611bfa565b61080e565b005b6102ec60048036038101906102e79190611d64565b610824565b005b61030860048036038101906103039190611a42565b610849565b60405161031591906119ef565b60405180910390f35b61033860048036038101906103339190611de4565b6108af565b6040516103459190611966565b60405180910390f35b61036860048036038101906103639190611b7d565b61093d565b005b5f7f80ac58cd000000000000000000000000000000000000000000000000000000007bffffffffffffffffffffffffffffffffffffffffffffffffffffffff1916827bffffffffffffffffffffffffffffffffffffffffffffffffffffffff1916148061043457507f5b5e139f000000000000000000000000000000000000000000000000000000007bffffffffffffffffffffffffffffffffffffffffffffffffffffffff1916827bffffffffffffffffffffffffffffffffffffffffffffffffffffffff1916145b806104445750610443826109c1565b5b9050919050565b60605f805461045990611e4f565b80601f016020809104026020016040519081016040528092919081815260200182805461048590611e4f565b80156104d05780601f106104a7576101008083540402835291602001916104d0565b820191905f5260205f20905b8154815290600101906020018083116104b357829003601f168201915b5050505050905090565b5f6104e482610a2a565b506104ee82610ab0565b9050919050565b6105078282610502610ae9565b610af0565b5050565b61051733600754610b02565b60075f81548092919061052990611eac565b9190505550565b5f73ffffffffffffffffffffffffffffffffffffffff168273ffffffffffffffffffffffffffffffffffffffff16036105a0575f6040517f64a0ae920000000000000000000000000000000000000000000000000000000081526004016105979190611aac565b60405180910390fd5b5f6105b383836105ae610ae9565b610b1f565b90508373ffffffffffffffffffffffffffffffffffffffff168173ffffffffffffffffffffffffffffffffffffffff1614610629578382826040517f64283d7b00000000000000000000000000000000000000000000000000000000815260040161062093929190611ef3565b60405180910390fd5b50505050565b610637610d2a565b61064381600754610b02565b60075f81548092919061065590611eac565b919050555050565b61067783838360405180602001604052805f815250610824565b505050565b5f61068682610a2a565b9050919050565b5f5f73ffffffffffffffffffffffffffffffffffffffff168273ffffffffffffffffffffffffffffffffffffffff16036106fe575f6040517f89c62b640000000000000000000000000000000000000000000000000000000081526004016106f59190611aac565b60405180910390fd5b60035f8373ffffffffffffffffffffffffffffffffffffffff1673ffffffffffffffffffffffffffffffffffffffff1681526020019081526020015f20549050919050565b61074b610d2a565b6107545f610db1565b565b5f60065f9054906101000a900473ffffffffffffffffffffffffffffffffffffffff16905090565b60606001805461078d90611e4f565b80601f01602080910402602001604051908101604052809291908181526020018280546107b990611e4f565b80156108045780601f106107db57610100808354040283529160200191610804565b820191905f5260205f20905b8154815290600101906020018083116107e757829003601f168201915b5050505050905090565b610820610819610ae9565b8383610e74565b5050565b61082f848484610530565b61084361083a610ae9565b8585858561104d565b50505050565b606061085482610a2a565b505f61085e6111f9565b90505f81511161087c5760405180602001604052805f8152506108a7565b806108868461120f565b604051602001610897929190611f62565b6040516020818303038152906040525b915050919050565b5f60055f8473ffffffffffffffffffffffffffffffffffffffff1673ffffffffffffffffffffffffffffffffffffffff1681526020019081526020015f205f8373ffffffffffffffffffffffffffffffffffffffff1673ffffffffffffffffffffffffffffffffffffffff1681526020019081526020015f205f9054906101000a900460ff16905092915050565b610945610d2a565b5f73ffffffffffffffffffffffffffffffffffffffff168173ffffffffffffffffffffffffffffffffffffffff16036109b5575f6040517f1e4fbdf70000000000000000000000000000000000000000000000000000000081526004016109ac9190611aac565b60405180910390fd5b6109be81610db1565b50565b5f7f01ffc9a7000000000000000000000000000000000000000000000000000000007bffffffffffffffffffffffffffffffffffffffffffffffffffffffff1916827bffffffffffffffffffffffffffffffffffffffffffffffffffffffff1916149050919050565b5f5f610a35836112d9565b90505f73ffffffffffffffffffffffffffffffffffffffff168173ffffffffffffffffffffffffffffffffffffffff1603610aa757826040517f7e273289000000000000000000000000000000000000000000000000000000008152600401610a9e9190611bb7565b60405180910390fd5b80915050919050565b5f60045f8381526020019081526020015f205f9054906101000a900473ffffffffffffffffffffffffffffffffffffffff169050919050565b5f33905090565b610afd8383836001611312565b505050565b610b1b828260405180602001604052805f8152506114d1565b5050565b5f5f610b2a846112d9565b90505f73ffffffffffffffffffffffffffffffffffffffff168373ffffffffffffffffffffffffffffffffffffffff1614610b6b57610b6a8184866114f4565b5b5f73ffffffffffffffffffffffffffffffffffffffff168173ffffffffffffffffffffffffffffffffffffffff1614610bf657610baa5f855f5f611312565b600160035f8373ffffffffffffffffffffffffffffffffffffffff1673ffffffffffffffffffffffffffffffffffffffff1681526020019081526020015f205f82825403925050819055505b5f73ffffffffffffffffffffffffffffffffffffffff168573ffffffffffffffffffffffffffffffffffffffff1614610c7557600160035f8773ffffffffffffffffffffffffffffffffffffffff1673ffffffffffffffffffffffffffffffffffffffff1681526020019081526020015f205f82825401925050819055505b8460025f8681526020019081526020015f205f6101000a81548173ffffffffffffffffffffffffffffffffffffffff021916908373ffffffffffffffffffffffffffffffffffffffff160217905550838573ffffffffffffffffffffffffffffffffffffffff168273ffffffffffffffffffffffffffffffffffffffff167fddf252ad1be2c89b69c2b068fc378daa952ba7f163c4a11628f55a4df523b3ef60405160405180910390a4809150509392505050565b610d32610ae9565b73ffffffffffffffffffffffffffffffffffffffff16610d50610756565b73ffffffffffffffffffffffffffffffffffffffff1614610daf57610d73610ae9565b6040517f118cdaa7000000000000000000000000000000000000000000000000000000008152600401610da69190611aac565b60405180910390fd5b565b5f60065f9054906101000a900473ffffffffffffffffffffffffffffffffffffffff1690508160065f6101000a81548173ffffffffffffffffffffffffffffffffffffffff021916908373ffffffffffffffffffffffffffffffffffffffff1602179055508173ffffffffffffffffffffffffffffffffffffffff168173ffffffffffffffffffffffffffffffffffffffff167f8be0079c531659141344cd1fd0a4f28419497f9722a3daafe3b4186f6b6457e060405160405180910390a35050565b5f73ffffffffffffffffffffffffffffffffffffffff168373ffffffffffffffffffffffffffffffffffffffff1603610ee4575f6040517fa9fbf51f000000000000000000000000000000000000000000000000000000008152600401610edb9190611aac565b60405180910390fd5b5f73ffffffffffffffffffffffffffffffffffffffff168273ffffffffffffffffffffffffffffffffffffffff1603610f5457816040517f5b08ba18000000000000000000000000000000000000000000000000000000008152600401610f4b9190611aac565b60405180910390fd5b8060055f8573ffffffffffffffffffffffffffffffffffffffff1673ffffffffffffffffffffffffffffffffffffffff1681526020019081526020015f205f8473ffffffffffffffffffffffffffffffffffffffff1673ffffffffffffffffffffffffffffffffffffffff1681526020019081526020015f205f6101000a81548160ff0219169083151502179055508173ffffffffffffffffffffffffffffffffffffffff168373ffffffffffffffffffffffffffffffffffffffff167f17307eab39ab6107e8899845ad3d59bd9653f200f220920489ca2b5937696c31836040516110409190611966565b60405180910390a3505050565b5f8373ffffffffffffffffffffffffffffffffffffffff163b11156111f2578273ffffffffffffffffffffffffffffffffffffffff1663150b7a02868685856040518563ffffffff1660e01b81526004016110ab9493929190611fd7565b6020604051808303815f875af19250505080156110e657506040513d601f19601f820116820180604052508101906110e39190612035565b60015b611167573d805f8114611114576040519150601f19603f3d011682016040523d82523d5f602084013e611119565b606091505b505f81510361115f57836040517f64a0ae920000000000000000000000000000000000000000000000000000000081526004016111569190611aac565b60405180910390fd5b805160208201fd5b63150b7a0260e01b7bffffffffffffffffffffffffffffffffffffffffffffffffffffffff1916817bffffffffffffffffffffffffffffffffffffffffffffffffffffffff1916146111f057836040517f64a0ae920000000000000000000000000000000000000000000000000000000081526004016111e79190611aac565b60405180910390fd5b505b5050505050565b606060405180602001604052805f815250905090565b60605f600161121d846115b7565b0190505f8167ffffffffffffffff81111561123b5761123a611c40565b5b6040519080825280601f01601f19166020018201604052801561126d5781602001600182028036833780820191505090505b5090505f82602083010190505b6001156112ce578080600190039150507f3031323334353637383961626364656600000000000000000000000000000000600a86061a8153600a85816112c3576112c2612060565b5b0494505f850361127a575b819350505050919050565b5f60025f8381526020019081526020015f205f9054906101000a900473ffffffffffffffffffffffffffffffffffffffff169050919050565b808061134a57505f73ffffffffffffffffffffffffffffffffffffffff168273ffffffffffffffffffffffffffffffffffffffff1614155b1561147c575f61135984610a2a565b90505f73ffffffffffffffffffffffffffffffffffffffff168373ffffffffffffffffffffffffffffffffffffffff16141580156113c357508273ffffffffffffffffffffffffffffffffffffffff168173ffffffffffffffffffffffffffffffffffffffff1614155b80156113d657506113d481846108af565b155b1561141857826040517fa9fbf51f00000000000000000000000000000000000000000000000000000000815260040161140f9190611aac565b60405180910390fd5b811561147a57838573ffffffffffffffffffffffffffffffffffffffff168273ffffffffffffffffffffffffffffffffffffffff167f8c5be1e5ebec7d5bd14f71427d1e84f3dd0314c0f7b2291e5b200ac8c7c3b92560405160405180910390a45b505b8360045f8581526020019081526020015f205f6101000a81548173ffffffffffffffffffffffffffffffffffffffff021916908373ffffffffffffffffffffffffffffffffffffffff16021790555050505050565b6114db8383611708565b6114ef6114e6610ae9565b5f85858561104d565b505050565b6114ff8383836117fb565b6115b2575f73ffffffffffffffffffffffffffffffffffffffff168373ffffffffffffffffffffffffffffffffffffffff160361157357806040517f7e27328900000000000000000000000000000000000000000000000000000000815260040161156a9190611bb7565b60405180910390fd5b81816040517f177e802f0000000000000000000000000000000000000000000000000000000081526004016115a992919061208d565b60405180910390fd5b505050565b5f5f5f90507a184f03e93ff9f4daa797ed6e38ed64bf6a1f0100000000000000008310611613577a184f03e93ff9f4daa797ed6e38ed64bf6a1f010000000000000000838161160957611608612060565b5b0492506040810190505b6d04ee2d6d415b85acef81000000008310611650576d04ee2d6d415b85acef8100000000838161164657611645612060565b5b0492506020810190505b662386f26fc10000831061167f57662386f26fc10000838161167557611674612060565b5b0492506010810190505b6305f5e10083106116a8576305f5e100838161169e5761169d612060565b5b0492506008810190505b61271083106116cd5761271083816116c3576116c2612060565b5b0492506004810190505b606483106116f057606483816116e6576116e5612060565b5b0492506002810190505b600a83106116ff576001810190505b80915050919050565b5f73ffffffffffffffffffffffffffffffffffffffff168273ffffffffffffffffffffffffffffffffffffffff1603611778575f6040517f64a0ae9200000000000000000000000000000000000000000000000000000000815260040161176f9190611aac565b60405180910390fd5b5f61178483835f610b1f565b90505f73ffffffffffffffffffffffffffffffffffffffff168173ffffffffffffffffffffffffffffffffffffffff16146117f6575f6040517f73c6ac6e0000000000000000000000000000000000000000000000000000000081526004016117ed9190611aac565b60405180910390fd5b505050565b5f5f73ffffffffffffffffffffffffffffffffffffffff168373ffffffffffffffffffffffffffffffffffffffff16141580156118b257508273ffffffffffffffffffffffffffffffffffffffff168473ffffffffffffffffffffffffffffffffffffffff161480611873575061187284846108af565b5b806118b157508273ffffffffffffffffffffffffffffffffffffffff1661189983610ab0565b73ffffffffffffffffffffffffffffffffffffffff16145b5b90509392505050565b5f604051905090565b5f5ffd5b5f5ffd5b5f7fffffffff0000000000000000000000000000000000000000000000000000000082169050919050565b611900816118cc565b811461190a575f5ffd5b50565b5f8135905061191b816118f7565b92915050565b5f60208284031215611936576119356118c4565b5b5f6119438482850161190d565b91505092915050565b5f8115159050919050565b6119608161194c565b82525050565b5f6020820190506119795f830184611957565b92915050565b5f81519050919050565b5f82825260208201905092915050565b8281835e5f83830152505050565b5f601f19601f8301169050919050565b5f6119c18261197f565b6119cb8185611989565b93506119db818560208601611999565b6119e4816119a7565b840191505092915050565b5f6020820190508181035f830152611a0781846119b7565b905092915050565b5f819050919050565b611a2181611a0f565b8114611a2b575f5ffd5b50565b5f81359050611a3c81611a18565b92915050565b5f60208284031215611a5757611a566118c4565b5b5f611a6484828501611a2e565b91505092915050565b5f73ffffffffffffffffffffffffffffffffffffffff82169050919050565b5f611a9682611a6d565b9050919050565b611aa681611a8c565b82525050565b5f602082019050611abf5f830184611a9d565b92915050565b611ace81611a8c565b8114611ad8575f5ffd5b50565b5f81359050611ae981611ac5565b92915050565b5f5f60408385031215611b0557611b046118c4565b5b5f611b1285828601611adb565b9250506020611b2385828601611a2e565b9150509250929050565b5f5f5f60608486031215611b4457611b436118c4565b5b5f611b5186828701611adb565b9350506020611b6286828701611adb565b9250506040611b7386828701611a2e565b9150509250925092565b5f60208284031215611b9257611b916118c4565b5b5f611b9f84828501611adb565b91505092915050565b611bb181611a0f565b82525050565b5f602082019050611bca5f830184611ba8565b92915050565b611bd98161194c565b8114611be3575f5ffd5b50565b5f81359050611bf481611bd0565b92915050565b5f5f60408385031215611c1057611c0f6118c4565b5b5f611c1d85828601611adb565b9250506020611c2e85828601611be6565b9150509250929050565b5f5ffd5b5f5ffd5b7f4e487b71000000000000000000000000000000000000000000000000000000005f52604160045260245ffd5b611c76826119a7565b810181811067ffffffffffffffff82111715611c9557611c94611c40565b5b80604052505050565b5f611ca76118bb565b9050611cb38282611c6d565b919050565b5f67ffffffffffffffff821115611cd257611cd1611c40565b5b611cdb826119a7565b9050602081019050919050565b828183375f83830152505050565b5f611d08611d0384611cb8565b611c9e565b905082815260208101848484011115611d2457611d23611c3c565b5b611d2f848285611ce8565b509392505050565b5f82601f830112611d4b57611d4a611c38565b5b8135611d5b848260208601611cf6565b91505092915050565b5f5f5f5f60808587031215611d7c57611d7b6118c4565b5b5f611d8987828801611adb565b9450506020611d9a87828801611adb565b9350506040611dab87828801611a2e565b925050606085013567ffffffffffffffff811115611dcc57611dcb6118c8565b5b611dd887828801611d37565b91505092959194509250565b5f5f60408385031215611dfa57611df96118c4565b5b5f611e0785828601611adb565b9250506020611e1885828601611adb565b9150509250929050565b7f4e487b71000000000000000000000000000000000000000000000000000000005f52602260045260245ffd5b5f6002820490506001821680611e6657607f821691505b602082108103611e7957611e78611e22565b5b50919050565b7f4e487b71000000000000000000000000000000000000000000000000000000005f52601160045260245ffd5b5f611eb682611a0f565b91507fffffffffffffffffffffffffffffffffffffffffffffffffffffffffffffffff8203611ee857611ee7611e7f565b5b600182019050919050565b5f606082019050611f065f830186611a9d565b611f136020830185611ba8565b611f206040830184611a9d565b949350505050565b5f81905092915050565b5f611f3c8261197f565b611f468185611f28565b9350611f56818560208601611999565b80840191505092915050565b5f611f6d8285611f32565b9150611f798284611f32565b91508190509392505050565b5f81519050919050565b5f82825260208201905092915050565b5f611fa982611f85565b611fb38185611f8f565b9350611fc3818560208601611999565b611fcc816119a7565b840191505092915050565b5f608082019050611fea5f830187611a9d565b611ff76020830186611a9d565b6120046040830185611ba8565b81810360608301526120168184611f9f565b905095945050505050565b5f8151905061202f816118f7565b92915050565b5f6020828403121561204a576120496118c4565b5b5f61205784828501612021565b91505092915050565b7f4e487b71000000000000000000000000000000000000000000000000000000005f52601260045260245ffd5b5f6040820190506120a05f830185611a9d565b6120ad6020830184611ba8565b939250505056fea264697066735822122038dcb0c114c04df3a39fb02d3801f7cc594cc8514b1900e12dd3adf7e9b10e1964736f6c634300081d0033",
  "linkReferences": {},
  "deployedLinkReferences": {}
}